{
  "contractName": "Shippingtracking",
  "abi": [
    {
      "anonymous": false,
      "inputs": [
        {
          "indexed": false,
          "internalType": "address",
          "name": "_by",
          "type": "address"
        }
      ],
      "name": "statusChanger",
      "type": "event"
    },
    {
      "constant": true,
      "inputs": [
        {
          "internalType": "address",
          "name": "_client",
          "type": "address"
        }
      ],
      "name": "getStatus",
      "outputs": [
        {
          "internalType": "enum Shippingtracking.shippingStatus",
          "name": "",
          "type": "uint8"
        }
      ],
      "payable": false,
      "stateMutability": "view",
      "type": "function"
    },
    {
      "constant": false,
      "inputs": [
        {
          "internalType": "address",
          "name": "_client",
          "type": "address"
        }
      ],
      "name": "Pending",
      "outputs": [],
      "payable": false,
      "stateMutability": "nonpayable",
      "type": "function"
    },
    {
      "constant": false,
      "inputs": [
        {
          "internalType": "address",
          "name": "_client",
          "type": "address"
        }
      ],
      "name": "Shipped",
      "outputs": [],
      "payable": false,
      "stateMutability": "nonpayable",
      "type": "function"
    },
    {
      "constant": false,
      "inputs": [
        {
          "internalType": "address",
          "name": "_client",
          "type": "address"
        }
      ],
      "name": "Delivered",
      "outputs": [],
      "payable": false,
      "stateMutability": "nonpayable",
      "type": "function"
    },
    {
      "constant": false,
      "inputs": [
        {
          "internalType": "address payable",
          "name": "_to",
          "type": "address"
        }
      ],
      "name": "Tips",
      "outputs": [],
      "payable": true,
      "stateMutability": "payable",
      "type": "function"
    }
  ],
  "bytecode": "0x608060405234801561001057600080fd5b50610638806100206000396000f3fe60806040526004361061004a5760003560e01c806319bfe06d1461004f57806330ccebb5146100a0578063553caee1146101135780636ac0bc3f14610164578063fedf826d146101a8575b600080fd5b34801561005b57600080fd5b5061009e6004803603602081101561007257600080fd5b81019080803573ffffffffffffffffffffffffffffffffffffffff1690602001909291905050506101f9565b005b3480156100ac57600080fd5b506100ef600480360360208110156100c357600080fd5b81019080803573ffffffffffffffffffffffffffffffffffffffff1690602001909291905050506102f0565b604051808260028111156100ff57fe5b60ff16815260200191505060405180910390f35b34801561011f57600080fd5b506101626004803603602081101561013657600080fd5b81019080803573ffffffffffffffffffffffffffffffffffffffff169060200190929190505050610348565b005b6101a66004803603602081101561017a57600080fd5b81019080803573ffffffffffffffffffffffffffffffffffffffff16906020019092919050505061043f565b005b3480156101b457600080fd5b506101f7600480360360208110156101cb57600080fd5b81019080803573ffffffffffffffffffffffffffffffffffffffff1690602001909291905050506104ef565b005b6102016105e5565b60405180602001604052806000600281111561021957fe5b8152509050806000808473ffffffffffffffffffffffffffffffffffffffff1673ffffffffffffffffffffffffffffffffffffffff16815260200190815260200160002060008201518160000160006101000a81548160ff0219169083600281111561028157fe5b02179055509050507fbe6edf5287dfeeed8b43444d4cceb0e3f3234f640e505ae68d354a94d8e7411633604051808273ffffffffffffffffffffffffffffffffffffffff1673ffffffffffffffffffffffffffffffffffffffff16815260200191505060405180910390a15050565b60008060008373ffffffffffffffffffffffffffffffffffffffff1673ffffffffffffffffffffffffffffffffffffffff16815260200190815260200160002060000160009054906101000a900460ff169050919050565b6103506105e5565b60405180602001604052806001600281111561036857fe5b8152509050806000808473ffffffffffffffffffffffffffffffffffffffff1673ffffffffffffffffffffffffffffffffffffffff16815260200190815260200160002060008201518160000160006101000a81548160ff021916908360028111156103d057fe5b02179055509050507fbe6edf5287dfeeed8b43444d4cceb0e3f3234f640e505ae68d354a94d8e7411633604051808273ffffffffffffffffffffffffffffffffffffffff1673ffffffffffffffffffffffffffffffffffffffff16815260200191505060405180910390a15050565b60008173ffffffffffffffffffffffffffffffffffffffff166108fc349081150290604051600060405180830381858888f193505050509050806104eb576040517f08c379a00000000000000000000000000000000000000000000000000000000081526004018080602001828103825260148152602001807f4661696c656420746f2073656e6420457468657200000000000000000000000081525060200191505060405180910390fd5b5050565b6104f76105e5565b604051806020016040528060028081111561050e57fe5b8152509050806000808473ffffffffffffffffffffffffffffffffffffffff1673ffffffffffffffffffffffffffffffffffffffff16815260200190815260200160002060008201518160000160006101000a81548160ff0219169083600281111561057657fe5b02179055509050507fbe6edf5287dfeeed8b43444d4cceb0e3f3234f640e505ae68d354a94d8e7411633604051808273ffffffffffffffffffffffffffffffffffffffff1673ffffffffffffffffffffffffffffffffffffffff16815260200191505060405180910390a15050565b6040518060200160405280600060028111156105fd57fe5b8152509056fea265627a7a7231582094f81994df1e9c0105867cc58a984344487e45a46818381ee6d50043f77a923264736f6c63430005100032",
  "source": "// SPDX-License-Identifier: GPL-3.0\r\npragma solidity ^0.5.16;\r\n\r\n\r\ncontract Shippingtracking {\r\n\r\n    /// L'Etat d'avancement du status (Pending = 0, Shipped = 1 et Delivered = 2)\r\n  enum shippingStatus { Pending, Shipped, Delivered }\r\n  \r\n  /// Evenement déclancher quand le status à changer\r\n    event statusChanger(address _by);\r\n  /// La structure de mon tracking\r\n  struct tracking {\r\n    Shippingtracking.shippingStatus _ShippingStatus;\r\n  }\r\n    /// Le mapping des numéros tracké\r\n    mapping(address => tracking) TrackingNumbers;\r\n    \r\n    /// La fonction qui me donne le shippingStatus en cours d'un tracking number\r\nfunction getStatus(address _client) public view returns(shippingStatus) {\r\n    return TrackingNumbers[_client]._ShippingStatus;\r\n    \r\n}\r\n\r\nfunction Pending(address _client) public {\r\n    tracking memory p = tracking(shippingStatus.Pending);\r\n    TrackingNumbers[_client] = p;\r\n    emit statusChanger(msg.sender);\r\n}\r\n\r\nfunction Shipped(address _client) public {\r\n    tracking memory p = tracking(shippingStatus.Shipped);\r\n    TrackingNumbers[_client] = p;\r\n    emit statusChanger(msg.sender);\r\n}\r\n\r\nfunction Delivered(address _client) public {\r\n    tracking memory p = tracking(shippingStatus.Delivered);\r\n    TrackingNumbers[_client] = p;\r\n    emit statusChanger(msg.sender);\r\n}\r\n\r\nfunction Tips(address payable _to) public payable {\r\n   \r\n    bool sent = _to.send(msg.value);\r\n        require(sent, \"Failed to send Ether\");\r\n    }\r\n\r\n} ",
  "sourcePath": "D:\\ProjetPerso\\SOLIDITY\\rendu\\contracts\\Shippingtracking.sol",
  "compiler": {
    "name": "solc",
    "version": "0.5.16+commit.9c3226ce.Emscripten.clang"
  },
  "schemaVersion": "3.4.3",
  "updatedAt": "2021-10-21T14:48:44.911Z",
  "devdoc": {
    "methods": {}
  },
  "userdoc": {
    "methods": {
      "getStatus(address)": {
        "notice": "La fonction qui me donne le shippingStatus en cours d'un tracking number"
      }
    }
  }
}